S00F00004D69647465726D2E7372656343
S11300000C9434000C9451000C9451000C94510045
S11300100C9451000C9451000C9451000C94510018
S11300200C9451000C9451000C9451000C94510008
S11300300C9451000C9451000C9451000C945100F8
S11300400C9451000C9451000C9451000C945100E8
S11300500C9451000C9453000C9451000C945100D6
S11300600C9451000C94510011241FBECFEFD8E022
S1130070DEBFCDBF11E0A0E0B1E0E8EAF3E002C0EA
S113008005900D92A43BB107D9F721E0A4EBB1E0B0
S113009001C01D92AA3BB207E1F70E94FB000C9439
S11300A0D2010C9400001F920F920FB60F921124EC
S11300B02F933F934F935F936F937F938F939F936C
S11300C0AF93BF93EF93FF93CF93DF93CDB7DEB797
S11300D02997DEBFCDBF85E090E09C838B831A8295
S11300E0198280917900880F8093B9018091B901B8
S11300F04AE0BE016B5F7F4F90E00E949D018981C1
S11301009A810597B8F4E981FA81A981BA8185E0D9
S113011090E08C0F9D1FA80FB91F8C91EC54FE4FDB
S1130120808389819A8101969A83898389819A81BE
S1130130059748F329960FB6F894DEBF0FBECDBFDE
S1130140DF91CF91FF91EF91BF91AF919F918F91EB
S11301507F916F915F914F913F912F910F900FBEBF
S11301600F901F901895CF93DF9300D000D0CDB798
S1130170DEB7AC011A8219821C821B82EB81FC81DE
S1130180E80FF91F8081882369F02B813C812F5F60
S11301903F4F3C832B83EB81FC81E40FF51F80816F
S11301A08111F3CF29813A818B819C8128173907EA
S11301B0D8F4E0ECF0E066EC70E0908195FFFDCFC0
S11301C0A981BA81A40FB51F8C91DB018C9329817D
S11301D03A812F5F3F4F3A83298329813A818B816A
S11301E09C812817390748F30F900F900F900F90B8
S11301F0DF91CF910895ECE7F0E010828081806474
S11302008083808180628083EAE7F0E08081876078
S1130210808380818062808310927B0080818068EB
S11302208083808188608083808180648083109251
S1130230C50080E18093C400E0ECF0E0808182603E
S11302408083E1ECF0E0808188608083E2ECF0E080
S11302508081866080832FE38DE093E0215080408D
S11302609040E1F700C000008EEA91E00E94B300E4
S11302702FE38DE093E0215080409040E1F700C0EF
S1130280000085EA91E00E94B3002FE38DE093E043
S1130290215080409040E1F700C0000087E991E0E0
S11302A00E94B3002FE38DE093E021508040904002
S11302B0E1F700C0000085E791E00E94B3002FE75A
S11302C08AE196E0215080409040E1F700C00000B0
S11302D087E691E00E94B30078942FE38DE093E0E9
S11302E0215080409040E1F700C000008EE391E08F
S11302F00E94B3002FE38DE093E0215080409040B2
S1130300E1F700C000008EE291E00E94B3002FE309
S11303108DE093E0215080409040E1F700C0000060
S113032085E091E00E94B30084EB91E00E94B30069
S113033080E091E00E94B300D0CFBB274A3031F473
S1130340992322F4BDE2909581959F4F0C94A901C5
S1130350BB27FB015527AA27880F991FAA1FA4179B
S113036010F0A41B83955051B9F7A05DAA3308F08F
S1130370A95DA193009779F7B111B1931192CB01C3
S11303800C94C201DC01FC01672F71917723E1F722
S1130390329704C07C916D9370836291AE17BF074E
S10B03A0C8F30895F894FFCF9F
S11303A80D0A0D0A00474554202F75706461746561
S11303B83F6B65793D503657535A48314245544A44
S11303C8505A475141266669656C64313D00415471
S11303D82B43495053454E443D34350D0A0041548E
S11303E82B43495053544152543D22544350222CD8
S11303F8223138342E3130362E3135332E313439DA
S1130408222C38300D0A0041542B4349504D55587D
S11304183D300D0A0041542B43574A41503D224177
S113042875746F626F7473222C2022303630363024
S1130438363036220D0A0041542B43574D4F44455C
S11304483D330D0A0041542B474D520D0A004154C7
S10704580D0A000085
S9030000FC
